{
  "_format": "hh-sol-artifact-1",
  "contractName": "FsKlay",
  "sourceName": "contracts/FsKlay.sol",
  "abi": [
    {
      "inputs": [],
      "stateMutability": "nonpayable",
      "type": "constructor"
    },
    {
      "anonymous": false,
      "inputs": [
        {
          "indexed": true,
          "internalType": "address",
          "name": "owner",
          "type": "address"
        },
        {
          "indexed": true,
          "internalType": "address",
          "name": "spender",
          "type": "address"
        },
        {
          "indexed": false,
          "internalType": "uint256",
          "name": "value",
          "type": "uint256"
        }
      ],
      "name": "Approval",
      "type": "event"
    },
    {
      "anonymous": false,
      "inputs": [
        {
          "indexed": true,
          "internalType": "address",
          "name": "from",
          "type": "address"
        },
        {
          "indexed": true,
          "internalType": "address",
          "name": "to",
          "type": "address"
        },
        {
          "indexed": false,
          "internalType": "uint256",
          "name": "value",
          "type": "uint256"
        }
      ],
      "name": "Transfer",
      "type": "event"
    },
    {
      "stateMutability": "payable",
      "type": "fallback"
    },
    {
      "inputs": [
        {
          "internalType": "address",
          "name": "account",
          "type": "address"
        },
        {
          "internalType": "address",
          "name": "spender",
          "type": "address"
        }
      ],
      "name": "allowance",
      "outputs": [
        {
          "internalType": "uint256",
          "name": "",
          "type": "uint256"
        }
      ],
      "stateMutability": "view",
      "type": "function"
    },
    {
      "inputs": [
        {
          "internalType": "address",
          "name": "spender",
          "type": "address"
        },
        {
          "internalType": "uint256",
          "name": "amount",
          "type": "uint256"
        }
      ],
      "name": "approve",
      "outputs": [
        {
          "internalType": "bool",
          "name": "",
          "type": "bool"
        }
      ],
      "stateMutability": "nonpayable",
      "type": "function"
    },
    {
      "inputs": [
        {
          "internalType": "address",
          "name": "account",
          "type": "address"
        }
      ],
      "name": "balanceOf",
      "outputs": [
        {
          "internalType": "uint256",
          "name": "",
          "type": "uint256"
        }
      ],
      "stateMutability": "view",
      "type": "function"
    },
    {
      "inputs": [],
      "name": "name",
      "outputs": [
        {
          "internalType": "string",
          "name": "",
          "type": "string"
        }
      ],
      "stateMutability": "view",
      "type": "function"
    },
    {
      "inputs": [
        {
          "internalType": "address",
          "name": "recipient",
          "type": "address"
        },
        {
          "internalType": "uint256",
          "name": "amount",
          "type": "uint256"
        }
      ],
      "name": "safeTransfer",
      "outputs": [],
      "stateMutability": "nonpayable",
      "type": "function"
    },
    {
      "inputs": [
        {
          "internalType": "address",
          "name": "recipient",
          "type": "address"
        },
        {
          "internalType": "uint256",
          "name": "amount",
          "type": "uint256"
        },
        {
          "internalType": "bytes",
          "name": "_data",
          "type": "bytes"
        }
      ],
      "name": "safeTransfer",
      "outputs": [],
      "stateMutability": "nonpayable",
      "type": "function"
    },
    {
      "inputs": [
        {
          "internalType": "address",
          "name": "sender",
          "type": "address"
        },
        {
          "internalType": "address",
          "name": "recipient",
          "type": "address"
        },
        {
          "internalType": "uint256",
          "name": "amount",
          "type": "uint256"
        }
      ],
      "name": "safeTransferFrom",
      "outputs": [],
      "stateMutability": "nonpayable",
      "type": "function"
    },
    {
      "inputs": [
        {
          "internalType": "address",
          "name": "sender",
          "type": "address"
        },
        {
          "internalType": "address",
          "name": "recipient",
          "type": "address"
        },
        {
          "internalType": "uint256",
          "name": "amount",
          "type": "uint256"
        },
        {
          "internalType": "bytes",
          "name": "_data",
          "type": "bytes"
        }
      ],
      "name": "safeTransferFrom",
      "outputs": [],
      "stateMutability": "nonpayable",
      "type": "function"
    },
    {
      "inputs": [
        {
          "internalType": "bytes4",
          "name": "interfaceId",
          "type": "bytes4"
        }
      ],
      "name": "supportsInterface",
      "outputs": [
        {
          "internalType": "bool",
          "name": "",
          "type": "bool"
        }
      ],
      "stateMutability": "view",
      "type": "function"
    },
    {
      "inputs": [],
      "name": "symbol",
      "outputs": [
        {
          "internalType": "string",
          "name": "",
          "type": "string"
        }
      ],
      "stateMutability": "view",
      "type": "function"
    },
    {
      "inputs": [],
      "name": "totalSupply",
      "outputs": [
        {
          "internalType": "uint256",
          "name": "",
          "type": "uint256"
        }
      ],
      "stateMutability": "view",
      "type": "function"
    },
    {
      "inputs": [
        {
          "internalType": "address",
          "name": "to",
          "type": "address"
        },
        {
          "internalType": "uint256",
          "name": "amount",
          "type": "uint256"
        }
      ],
      "name": "transfer",
      "outputs": [
        {
          "internalType": "bool",
          "name": "",
          "type": "bool"
        }
      ],
      "stateMutability": "nonpayable",
      "type": "function"
    },
    {
      "inputs": [
        {
          "internalType": "address",
          "name": "from",
          "type": "address"
        },
        {
          "internalType": "address",
          "name": "to",
          "type": "address"
        },
        {
          "internalType": "uint256",
          "name": "amount",
          "type": "uint256"
        }
      ],
      "name": "transferFrom",
      "outputs": [
        {
          "internalType": "bool",
          "name": "",
          "type": "bool"
        }
      ],
      "stateMutability": "nonpayable",
      "type": "function"
    },
    {
      "stateMutability": "payable",
      "type": "receive"
    }
  ],
  "bytecode": "0x60806040523480156200001157600080fd5b506040518060400160405280600e81526020017f4d7920466c61736820546f6b656e0000000000000000000000000000000000008152506000908162000058919062000708565b506040518060400160405280600681526020017f46734b6c61790000000000000000000000000000000000000000000000000000815250600190816200009f919062000708565b506000600281905550620000cf620000bc620000d560201b60201c565b655af3107a3fff620000dd60201b60201c565b62000c01565b600033905090565b620000ff8282604051806020016040528060008152506200010360201b60201c565b5050565b6200011583836200017160201b60201c565b6200012a6000848484620002c260201b60201c565b6200016c576040517f08c379a0000000000000000000000000000000000000000000000000000000008152600401620001639062000876565b60405180910390fd5b505050565b600073ffffffffffffffffffffffffffffffffffffffff168273ffffffffffffffffffffffffffffffffffffffff1603620001e3576040517f08c379a0000000000000000000000000000000000000000000000000000000008152600401620001da90620008e8565b60405180910390fd5b8060026000828254620001f7919062000939565b9250508190555080600360008473ffffffffffffffffffffffffffffffffffffffff1673ffffffffffffffffffffffffffffffffffffffff16815260200190815260200160002060008282546200024f919062000939565b925050819055508173ffffffffffffffffffffffffffffffffffffffff16600073ffffffffffffffffffffffffffffffffffffffff167fddf252ad1be2c89b69c2b068fc378daa952ba7f163c4a11628f55a4df523b3ef83604051620002b6919062000985565b60405180910390a35050565b6000620002f08473ffffffffffffffffffffffffffffffffffffffff166200046b60201b620006e51760201c565b156200045e578373ffffffffffffffffffffffffffffffffffffffff16639d188c2262000322620000d560201b60201c565b8786866040518563ffffffff1660e01b815260040162000346949392919062000a81565b6020604051808303816000875af19250505080156200038557506040513d601f19601f8201168201806040525081019062000382919062000b37565b60015b6200040d573d8060008114620003b8576040519150601f19603f3d011682016040523d82523d6000602084013e620003bd565b606091505b50600081510362000405576040517f08c379a0000000000000000000000000000000000000000000000000000000008152600401620003fc9062000bdf565b60405180910390fd5b805181602001fd5b639d188c2260e01b7bffffffffffffffffffffffffffffffffffffffffffffffffffffffff1916817bffffffffffffffffffffffffffffffffffffffffffffffffffffffff19161491505062000463565b600190505b949350505050565b6000808273ffffffffffffffffffffffffffffffffffffffff163b119050919050565b600081519050919050565b7f4e487b7100000000000000000000000000000000000000000000000000000000600052604160045260246000fd5b7f4e487b7100000000000000000000000000000000000000000000000000000000600052602260045260246000fd5b600060028204905060018216806200051057607f821691505b602082108103620005265762000525620004c8565b5b50919050565b60008190508160005260206000209050919050565b60006020601f8301049050919050565b600082821b905092915050565b600060088302620005907fffffffffffffffffffffffffffffffffffffffffffffffffffffffffffffffff8262000551565b6200059c868362000551565b95508019841693508086168417925050509392505050565b6000819050919050565b6000819050919050565b6000620005e9620005e3620005dd84620005b4565b620005be565b620005b4565b9050919050565b6000819050919050565b6200060583620005c8565b6200061d6200061482620005f0565b8484546200055e565b825550505050565b600090565b6200063462000625565b62000641818484620005fa565b505050565b5b8181101562000669576200065d6000826200062a565b60018101905062000647565b5050565b601f821115620006b85762000682816200052c565b6200068d8462000541565b810160208510156200069d578190505b620006b5620006ac8562000541565b83018262000646565b50505b505050565b600082821c905092915050565b6000620006dd60001984600802620006bd565b1980831691505092915050565b6000620006f88383620006ca565b9150826002028217905092915050565b62000713826200048e565b67ffffffffffffffff8111156200072f576200072e62000499565b5b6200073b8254620004f7565b620007488282856200066d565b600060209050601f8311600181146200078057600084156200076b578287015190505b620007778582620006ea565b865550620007e7565b601f19841662000790866200052c565b60005b82811015620007ba5784890151825560018201915060208501945060208101905062000793565b86831015620007da5784890151620007d6601f891682620006ca565b8355505b6001600288020188555050505b505050505050565b600082825260208201905092915050565b7f4b4950373a207472616e7366657220746f206e6f6e20494b495037526563656960008201527f76657220696d706c656d656e7465720000000000000000000000000000000000602082015250565b60006200085e602f83620007ef565b91506200086b8262000800565b604082019050919050565b6000602082019050818103600083015262000891816200084f565b9050919050565b7f4b4950373a206d696e7420746f20746865207a65726f20616464726573730000600082015250565b6000620008d0601e83620007ef565b9150620008dd8262000898565b602082019050919050565b600060208201905081810360008301526200090381620008c1565b9050919050565b7f4e487b7100000000000000000000000000000000000000000000000000000000600052601160045260246000fd5b60006200094682620005b4565b91506200095383620005b4565b92508282019050808211156200096e576200096d6200090a565b5b92915050565b6200097f81620005b4565b82525050565b60006020820190506200099c600083018462000974565b92915050565b600073ffffffffffffffffffffffffffffffffffffffff82169050919050565b6000620009cf82620009a2565b9050919050565b620009e181620009c2565b82525050565b600081519050919050565b600082825260208201905092915050565b60005b8381101562000a2357808201518184015260208101905062000a06565b60008484015250505050565b6000601f19601f8301169050919050565b600062000a4d82620009e7565b62000a598185620009f2565b935062000a6b81856020860162000a03565b62000a768162000a2f565b840191505092915050565b600060808201905062000a986000830187620009d6565b62000aa76020830186620009d6565b62000ab6604083018562000974565b818103606083015262000aca818462000a40565b905095945050505050565b600080fd5b60007fffffffff0000000000000000000000000000000000000000000000000000000082169050919050565b62000b118162000ada565b811462000b1d57600080fd5b50565b60008151905062000b318162000b06565b92915050565b60006020828403121562000b505762000b4f62000ad5565b5b600062000b608482850162000b20565b91505092915050565b7f4b4950373a207472616e7366657220746f206e6f6e204b49503752656365697660008201527f657220696d706c656d656e746572000000000000000000000000000000000000602082015250565b600062000bc7602e83620007ef565b915062000bd48262000b69565b604082019050919050565b6000602082019050818103600083015262000bfa8162000bb8565b9050919050565b611b128062000c116000396000f3fe6080604052600436106100c65760003560e01c806342842e0e1161007f578063a9059cbb11610059578063a9059cbb14610296578063b88d4fde146102d3578063dd62ed3e146102fc578063eb79554914610339576100cd565b806342842e0e1461020557806370a082311461022e57806395d89b411461026b576100cd565b806301ffc9a7146100cf57806306fdde031461010c578063095ea7b31461013757806318160ddd1461017457806323b872dd1461019f578063423f6cef146101dc576100cd565b366100cd57005b005b3480156100db57600080fd5b506100f660048036038101906100f19190610f79565b610362565b6040516101039190610fc1565b60405180910390f35b34801561011857600080fd5b506101216103dc565b60405161012e919061106c565b60405180910390f35b34801561014357600080fd5b5061015e60048036038101906101599190611122565b61046e565b60405161016b9190610fc1565b60405180910390f35b34801561018057600080fd5b5061018961048c565b6040516101969190611171565b60405180910390f35b3480156101ab57600080fd5b506101c660048036038101906101c1919061118c565b610496565b6040516101d39190610fc1565b60405180910390f35b3480156101e857600080fd5b5061020360048036038101906101fe9190611122565b6104c5565b005b34801561021157600080fd5b5061022c6004803603810190610227919061118c565b6104eb565b005b34801561023a57600080fd5b50610255600480360381019061025091906111df565b610523565b6040516102629190611171565b60405180910390f35b34801561027757600080fd5b5061028061056c565b60405161028d919061106c565b60405180910390f35b3480156102a257600080fd5b506102bd60048036038101906102b89190611122565b6105fe565b6040516102ca9190610fc1565b60405180910390f35b3480156102df57600080fd5b506102fa60048036038101906102f59190611341565b61061c565b005b34801561030857600080fd5b50610323600480360381019061031e91906113c4565b610646565b6040516103309190611171565b60405180910390f35b34801561034557600080fd5b50610360600480360381019061035b9190611404565b6106cd565b005b60007f65787371000000000000000000000000000000000000000000000000000000007bffffffffffffffffffffffffffffffffffffffffffffffffffffffff1916827bffffffffffffffffffffffffffffffffffffffffffffffffffffffff191614806103d557506103d482610708565b5b9050919050565b6060600080546103eb906114a2565b80601f0160208091040260200160405190810160405280929190818152602001828054610417906114a2565b80156104645780601f1061043957610100808354040283529160200191610464565b820191906000526020600020905b81548152906001019060200180831161044757829003601f168201915b5050505050905090565b600061048261047b610772565b848461077a565b6001905092915050565b6000600254905090565b6000806104a1610772565b90506104ae858285610943565b6104b98585856109cf565b60019150509392505050565b6104e76104d0610772565b838360405180602001604052806000815250610c5f565b5050565b60006104f5610772565b9050610502848284610943565b61051d84848460405180602001604052806000815250610c5f565b50505050565b6000600360008373ffffffffffffffffffffffffffffffffffffffff1673ffffffffffffffffffffffffffffffffffffffff168152602001908152602001600020549050919050565b60606001805461057b906114a2565b80601f01602080910402602001604051908101604052809291908181526020018280546105a7906114a2565b80156105f45780601f106105c9576101008083540402835291602001916105f4565b820191906000526020600020905b8154815290600101906020018083116105d757829003601f168201915b5050505050905090565b600061061261060b610772565b84846109cf565b6001905092915050565b6000610626610772565b9050610633858285610943565b61063f85858585610c5f565b5050505050565b6000600460008473ffffffffffffffffffffffffffffffffffffffff1673ffffffffffffffffffffffffffffffffffffffff16815260200190815260200160002060008373ffffffffffffffffffffffffffffffffffffffff1673ffffffffffffffffffffffffffffffffffffffff16815260200190815260200160002054905092915050565b6106e06106d8610772565b848484610c5f565b505050565b6000808273ffffffffffffffffffffffffffffffffffffffff163b119050919050565b60007f01ffc9a7000000000000000000000000000000000000000000000000000000007bffffffffffffffffffffffffffffffffffffffffffffffffffffffff1916827bffffffffffffffffffffffffffffffffffffffffffffffffffffffff1916149050919050565b600033905090565b600073ffffffffffffffffffffffffffffffffffffffff168373ffffffffffffffffffffffffffffffffffffffff16036107e9576040517f08c379a00000000000000000000000000000000000000000000000000000000081526004016107e090611545565b60405180910390fd5b600073ffffffffffffffffffffffffffffffffffffffff168273ffffffffffffffffffffffffffffffffffffffff1603610858576040517f08c379a000000000000000000000000000000000000000000000000000000000815260040161084f906115d7565b60405180910390fd5b80600460008573ffffffffffffffffffffffffffffffffffffffff1673ffffffffffffffffffffffffffffffffffffffff16815260200190815260200160002060008473ffffffffffffffffffffffffffffffffffffffff1673ffffffffffffffffffffffffffffffffffffffff168152602001908152602001600020819055508173ffffffffffffffffffffffffffffffffffffffff168373ffffffffffffffffffffffffffffffffffffffff167f8c5be1e5ebec7d5bd14f71427d1e84f3dd0314c0f7b2291e5b200ac8c7c3b925836040516109369190611171565b60405180910390a3505050565b600061094f8484610646565b90507fffffffffffffffffffffffffffffffffffffffffffffffffffffffffffffffff81146109c957818110156109bb576040517f08c379a00000000000000000000000000000000000000000000000000000000081526004016109b290611643565b60405180910390fd5b6109c8848484840361077a565b5b50505050565b600073ffffffffffffffffffffffffffffffffffffffff168373ffffffffffffffffffffffffffffffffffffffff1603610a3e576040517f08c379a0000000000000000000000000000000000000000000000000000000008152600401610a35906116d5565b60405180910390fd5b600073ffffffffffffffffffffffffffffffffffffffff168273ffffffffffffffffffffffffffffffffffffffff1603610aad576040517f08c379a0000000000000000000000000000000000000000000000000000000008152600401610aa490611767565b60405180910390fd5b6000600360008573ffffffffffffffffffffffffffffffffffffffff1673ffffffffffffffffffffffffffffffffffffffff16815260200190815260200160002054905081811015610b34576040517f08c379a0000000000000000000000000000000000000000000000000000000008152600401610b2b906117d3565b60405180910390fd5b818103600360008673ffffffffffffffffffffffffffffffffffffffff1673ffffffffffffffffffffffffffffffffffffffff1681526020019081526020016000208190555081600360008573ffffffffffffffffffffffffffffffffffffffff1673ffffffffffffffffffffffffffffffffffffffff1681526020019081526020016000206000828254610bc99190611822565b92505081905550610bf4604051806060016040528060248152602001611ab960249139338585610cbb565b8273ffffffffffffffffffffffffffffffffffffffff168473ffffffffffffffffffffffffffffffffffffffff167fddf252ad1be2c89b69c2b068fc378daa952ba7f163c4a11628f55a4df523b3ef84604051610c519190611171565b60405180910390a350505050565b610c6a8484846109cf565b610c7684848484610d5d565b610cb5576040517f08c379a0000000000000000000000000000000000000000000000000000000008152600401610cac906118c8565b60405180910390fd5b50505050565b610d5784848484604051602401610cd594939291906118f7565b6040516020818303038152906040527f8ef3f399000000000000000000000000000000000000000000000000000000007bffffffffffffffffffffffffffffffffffffffffffffffffffffffff19166020820180517bffffffffffffffffffffffffffffffffffffffffffffffffffffffff8381831617835250505050610ee4565b50505050565b6000610d7e8473ffffffffffffffffffffffffffffffffffffffff166106e5565b15610ed7578373ffffffffffffffffffffffffffffffffffffffff16639d188c22610da7610772565b8786866040518563ffffffff1660e01b8152600401610dc99493929190611998565b6020604051808303816000875af1925050508015610e0557506040513d601f19601f82011682018060405250810190610e0291906119f9565b60015b610e87573d8060008114610e35576040519150601f19603f3d011682016040523d82523d6000602084013e610e3a565b606091505b506000815103610e7f576040517f08c379a0000000000000000000000000000000000000000000000000000000008152600401610e7690611a98565b60405180910390fd5b805181602001fd5b639d188c2260e01b7bffffffffffffffffffffffffffffffffffffffffffffffffffffffff1916817bffffffffffffffffffffffffffffffffffffffffffffffffffffffff191614915050610edc565b600190505b949350505050565b60008151905060006a636f6e736f6c652e6c6f679050602083016000808483855afa5050505050565b6000604051905090565b600080fd5b600080fd5b60007fffffffff0000000000000000000000000000000000000000000000000000000082169050919050565b610f5681610f21565b8114610f6157600080fd5b50565b600081359050610f7381610f4d565b92915050565b600060208284031215610f8f57610f8e610f17565b5b6000610f9d84828501610f64565b91505092915050565b60008115159050919050565b610fbb81610fa6565b82525050565b6000602082019050610fd66000830184610fb2565b92915050565b600081519050919050565b600082825260208201905092915050565b60005b83811015611016578082015181840152602081019050610ffb565b60008484015250505050565b6000601f19601f8301169050919050565b600061103e82610fdc565b6110488185610fe7565b9350611058818560208601610ff8565b61106181611022565b840191505092915050565b600060208201905081810360008301526110868184611033565b905092915050565b600073ffffffffffffffffffffffffffffffffffffffff82169050919050565b60006110b98261108e565b9050919050565b6110c9816110ae565b81146110d457600080fd5b50565b6000813590506110e6816110c0565b92915050565b6000819050919050565b6110ff816110ec565b811461110a57600080fd5b50565b60008135905061111c816110f6565b92915050565b6000806040838503121561113957611138610f17565b5b6000611147858286016110d7565b92505060206111588582860161110d565b9150509250929050565b61116b816110ec565b82525050565b60006020820190506111866000830184611162565b92915050565b6000806000606084860312156111a5576111a4610f17565b5b60006111b3868287016110d7565b93505060206111c4868287016110d7565b92505060406111d58682870161110d565b9150509250925092565b6000602082840312156111f5576111f4610f17565b5b6000611203848285016110d7565b91505092915050565b600080fd5b600080fd5b7f4e487b7100000000000000000000000000000000000000000000000000000000600052604160045260246000fd5b61124e82611022565b810181811067ffffffffffffffff8211171561126d5761126c611216565b5b80604052505050565b6000611280610f0d565b905061128c8282611245565b919050565b600067ffffffffffffffff8211156112ac576112ab611216565b5b6112b582611022565b9050602081019050919050565b82818337600083830152505050565b60006112e46112df84611291565b611276565b905082815260208101848484011115611300576112ff611211565b5b61130b8482856112c2565b509392505050565b600082601f8301126113285761132761120c565b5b81356113388482602086016112d1565b91505092915050565b6000806000806080858703121561135b5761135a610f17565b5b6000611369878288016110d7565b945050602061137a878288016110d7565b935050604061138b8782880161110d565b925050606085013567ffffffffffffffff8111156113ac576113ab610f1c565b5b6113b887828801611313565b91505092959194509250565b600080604083850312156113db576113da610f17565b5b60006113e9858286016110d7565b92505060206113fa858286016110d7565b9150509250929050565b60008060006060848603121561141d5761141c610f17565b5b600061142b868287016110d7565b935050602061143c8682870161110d565b925050604084013567ffffffffffffffff81111561145d5761145c610f1c565b5b61146986828701611313565b9150509250925092565b7f4e487b7100000000000000000000000000000000000000000000000000000000600052602260045260246000fd5b600060028204905060018216806114ba57607f821691505b6020821081036114cd576114cc611473565b5b50919050565b7f4b4950373a20617070726f76652066726f6d20746865207a65726f206164647260008201527f6573730000000000000000000000000000000000000000000000000000000000602082015250565b600061152f602383610fe7565b915061153a826114d3565b604082019050919050565b6000602082019050818103600083015261155e81611522565b9050919050565b7f4b4950373a20617070726f766520746f20746865207a65726f2061646472657360008201527f7300000000000000000000000000000000000000000000000000000000000000602082015250565b60006115c1602183610fe7565b91506115cc82611565565b604082019050919050565b600060208201905081810360008301526115f0816115b4565b9050919050565b7f4b4950373a20696e73756666696369656e7420616c6c6f77616e636500000000600082015250565b600061162d601c83610fe7565b9150611638826115f7565b602082019050919050565b6000602082019050818103600083015261165c81611620565b9050919050565b7f4b4950373a207472616e736665722066726f6d20746865207a65726f2061646460008201527f7265737300000000000000000000000000000000000000000000000000000000602082015250565b60006116bf602483610fe7565b91506116ca82611663565b604082019050919050565b600060208201905081810360008301526116ee816116b2565b9050919050565b7f4b4950373a207472616e7366657220746f20746865207a65726f20616464726560008201527f7373000000000000000000000000000000000000000000000000000000000000602082015250565b6000611751602283610fe7565b915061175c826116f5565b604082019050919050565b6000602082019050818103600083015261178081611744565b9050919050565b7f4b4950373a204e6f7420656e6f7567682062616c616e63657300000000000000600082015250565b60006117bd601983610fe7565b91506117c882611787565b602082019050919050565b600060208201905081810360008301526117ec816117b0565b9050919050565b7f4e487b7100000000000000000000000000000000000000000000000000000000600052601160045260246000fd5b600061182d826110ec565b9150611838836110ec565b92508282019050808211156118505761184f6117f3565b5b92915050565b7f4b4950373a207472616e7366657220746f206e6f6e20494b495037526563656960008201527f76657220696d706c656d656e7465720000000000000000000000000000000000602082015250565b60006118b2602f83610fe7565b91506118bd82611856565b604082019050919050565b600060208201905081810360008301526118e1816118a5565b9050919050565b6118f1816110ae565b82525050565b600060808201905081810360008301526119118187611033565b905061192060208301866118e8565b61192d60408301856118e8565b61193a6060830184611162565b95945050505050565b600081519050919050565b600082825260208201905092915050565b600061196a82611943565b611974818561194e565b9350611984818560208601610ff8565b61198d81611022565b840191505092915050565b60006080820190506119ad60008301876118e8565b6119ba60208301866118e8565b6119c76040830185611162565b81810360608301526119d9818461195f565b905095945050505050565b6000815190506119f381610f4d565b92915050565b600060208284031215611a0f57611a0e610f17565b5b6000611a1d848285016119e4565b91505092915050565b7f4b4950373a207472616e7366657220746f206e6f6e204b49503752656365697660008201527f657220696d706c656d656e746572000000000000000000000000000000000000602082015250565b6000611a82602e83610fe7565b9150611a8d82611a26565b604082019050919050565b60006020820190508181036000830152611ab181611a75565b905091905056fe5472616e7366657272696e672066726f6d20257320746f20257320257320746f6b656e73a2646970667358221220ffb00b5cb56cc66ddf45f92561a6c2b6ba958a46095e50aea4e91cc737ca458f64736f6c63430008120033",
  "linkReferences": {},
  "deployedLinkReferences": {}
}